{
  "_format": "hh-sol-artifact-1",
  "contractName": "Vouch",
  "sourceName": "contracts/Vouch.sol",
  "abi": [
    {
      "inputs": [],
      "name": "Vouch__AlreadyVouchedForUser",
      "type": "error"
    },
    {
      "inputs": [],
      "name": "Vouch__ClawbackFailed",
      "type": "error"
    },
    {
      "inputs": [],
      "name": "Vouch__NotVouchedForUser",
      "type": "error"
    },
    {
      "inputs": [],
      "name": "Vouch__ReturnCollateralFailed",
      "type": "error"
    },
    {
      "inputs": [],
      "name": "Vouch__TooLowScore",
      "type": "error"
    },
    {
      "inputs": [],
      "name": "Vouch__TooManyVouches",
      "type": "error"
    },
    {
      "inputs": [],
      "name": "Vouch__VoucheeNoNFC",
      "type": "error"
    },
    {
      "inputs": [],
      "name": "Vouch__VoucherLower",
      "type": "error"
    },
    {
      "inputs": [],
      "name": "Vouch__VoucherNoNFC",
      "type": "error"
    },
    {
      "inputs": [],
      "name": "Vouch__YieldPaymentFailed",
      "type": "error"
    },
    {
      "anonymous": false,
      "inputs": [
        {
          "indexed": true,
          "internalType": "address",
          "name": "voucher",
          "type": "address"
        },
        {
          "indexed": true,
          "internalType": "address",
          "name": "vouchee",
          "type": "address"
        },
        {
          "indexed": true,
          "internalType": "uint256",
          "name": "amount",
          "type": "uint256"
        }
      ],
      "name": "CollateralClawedBack",
      "type": "event"
    },
    {
      "anonymous": false,
      "inputs": [
        {
          "indexed": true,
          "internalType": "address",
          "name": "voucher",
          "type": "address"
        },
        {
          "indexed": true,
          "internalType": "address",
          "name": "vouchee",
          "type": "address"
        },
        {
          "indexed": true,
          "internalType": "uint256",
          "name": "amount",
          "type": "uint256"
        }
      ],
      "name": "CollateralPosted",
      "type": "event"
    },
    {
      "anonymous": false,
      "inputs": [
        {
          "indexed": true,
          "internalType": "address",
          "name": "voucher",
          "type": "address"
        },
        {
          "indexed": true,
          "internalType": "address",
          "name": "vouchee",
          "type": "address"
        },
        {
          "indexed": false,
          "internalType": "uint256",
          "name": "amount",
          "type": "uint256"
        },
        {
          "indexed": false,
          "internalType": "uint256",
          "name": "yield",
          "type": "uint256"
        }
      ],
      "name": "CollateralReturned",
      "type": "event"
    },
    {
      "anonymous": false,
      "inputs": [
        {
          "indexed": true,
          "internalType": "address",
          "name": "voucher",
          "type": "address"
        },
        {
          "indexed": true,
          "internalType": "address",
          "name": "vouchee",
          "type": "address"
        }
      ],
      "name": "UserUnvouched",
      "type": "event"
    },
    {
      "anonymous": false,
      "inputs": [
        {
          "indexed": true,
          "internalType": "address",
          "name": "voucher",
          "type": "address"
        },
        {
          "indexed": true,
          "internalType": "address",
          "name": "vouchee",
          "type": "address"
        }
      ],
      "name": "UserVouched",
      "type": "event"
    },
    {
      "anonymous": false,
      "inputs": [
        {
          "indexed": true,
          "internalType": "address",
          "name": "voucher",
          "type": "address"
        },
        {
          "indexed": true,
          "internalType": "address",
          "name": "vouchee",
          "type": "address"
        },
        {
          "indexed": true,
          "internalType": "uint256",
          "name": "amount",
          "type": "uint256"
        }
      ],
      "name": "YieldPosted",
      "type": "event"
    },
    {
      "inputs": [],
      "name": "SCORE_TYPE_ID",
      "outputs": [
        {
          "internalType": "bytes32",
          "name": "",
          "type": "bytes32"
        }
      ],
      "stateMutability": "view",
      "type": "function"
    },
    {
      "inputs": [
        {
          "internalType": "address",
          "name": "voucher",
          "type": "address"
        },
        {
          "internalType": "address",
          "name": "vouchee",
          "type": "address"
        }
      ],
      "name": "clawback",
      "outputs": [],
      "stateMutability": "nonpayable",
      "type": "function"
    },
    {
      "inputs": [
        {
          "internalType": "address",
          "name": "vouchee",
          "type": "address"
        },
        {
          "internalType": "uint256",
          "name": "amount",
          "type": "uint256"
        }
      ],
      "name": "postCollateral",
      "outputs": [],
      "stateMutability": "payable",
      "type": "function"
    },
    {
      "inputs": [
        {
          "internalType": "address",
          "name": "voucher",
          "type": "address"
        },
        {
          "internalType": "address",
          "name": "vouchee",
          "type": "address"
        },
        {
          "internalType": "uint256",
          "name": "amount",
          "type": "uint256"
        }
      ],
      "name": "postYield",
      "outputs": [],
      "stateMutability": "payable",
      "type": "function"
    },
    {
      "inputs": [
        {
          "internalType": "address",
          "name": "voucher",
          "type": "address"
        },
        {
          "internalType": "address",
          "name": "vouchee",
          "type": "address"
        }
      ],
      "name": "returnCollateral",
      "outputs": [],
      "stateMutability": "nonpayable",
      "type": "function"
    },
    {
      "inputs": [
        {
          "internalType": "address",
          "name": "vouchee",
          "type": "address"
        }
      ],
      "name": "unvouch",
      "outputs": [],
      "stateMutability": "nonpayable",
      "type": "function"
    },
    {
      "inputs": [
        {
          "internalType": "address",
          "name": "vouchee",
          "type": "address"
        }
      ],
      "name": "vouch",
      "outputs": [],
      "stateMutability": "nonpayable",
      "type": "function"
    },
    {
      "inputs": [
        {
          "internalType": "address",
          "name": "",
          "type": "address"
        },
        {
          "internalType": "address",
          "name": "",
          "type": "address"
        }
      ],
      "name": "vouchCollateral",
      "outputs": [
        {
          "internalType": "uint256",
          "name": "",
          "type": "uint256"
        }
      ],
      "stateMutability": "view",
      "type": "function"
    },
    {
      "inputs": [
        {
          "internalType": "address",
          "name": "",
          "type": "address"
        },
        {
          "internalType": "address",
          "name": "",
          "type": "address"
        }
      ],
      "name": "vouchCollateralYield",
      "outputs": [
        {
          "internalType": "uint256",
          "name": "",
          "type": "uint256"
        }
      ],
      "stateMutability": "view",
      "type": "function"
    },
    {
      "inputs": [
        {
          "internalType": "address",
          "name": "",
          "type": "address"
        }
      ],
      "name": "vouchCount",
      "outputs": [
        {
          "internalType": "uint256",
          "name": "",
          "type": "uint256"
        }
      ],
      "stateMutability": "view",
      "type": "function"
    },
    {
      "inputs": [
        {
          "internalType": "address",
          "name": "",
          "type": "address"
        },
        {
          "internalType": "address",
          "name": "",
          "type": "address"
        }
      ],
      "name": "vouchLookup",
      "outputs": [
        {
          "internalType": "bool",
          "name": "",
          "type": "bool"
        }
      ],
      "stateMutability": "view",
      "type": "function"
    },
    {
      "inputs": [
        {
          "internalType": "address",
          "name": "",
          "type": "address"
        },
        {
          "internalType": "address",
          "name": "",
          "type": "address"
        }
      ],
      "name": "vouchReverseLookup",
      "outputs": [
        {
          "internalType": "bool",
          "name": "",
          "type": "bool"
        }
      ],
      "stateMutability": "view",
      "type": "function"
    }
  ],
  "bytecode": "0x60806040527f393334386635626133663537346636353935386136373565343638646139633860005534801561003457600080fd5b50611cdc806100446000396000f3fe6080604052600436106100a75760003560e01c8063caac411511610064578063caac4115146101d3578063d5f6754314610210578063dd66e16b14610239578063e4e0724b14610262578063faf434f21461028b578063fbb49810146102c8576100a7565b80634122271a146100ac5780634e85e242146100e95780638c14ae72146101055780639766c98d1461013057806398c92aa91461016d578063ab43cc36146101aa575b600080fd5b3480156100b857600080fd5b506100d360048036038101906100ce9190611931565b6102e4565b6040516100e0919061198a565b60405180910390f35b61010360048036038101906100fe91906119d1565b610309565b005b34801561011157600080fd5b5061011a6104aa565b6040516101279190611a3d565b60405180910390f35b34801561013c57600080fd5b5061015760048036038101906101529190611931565b6104b0565b6040516101649190611a73565b60405180910390f35b34801561017957600080fd5b50610194600480360381019061018f9190611931565b6104df565b6040516101a19190611a73565b60405180910390f35b3480156101b657600080fd5b506101d160048036038101906101cc9190611a8e565b61050e565b005b3480156101df57600080fd5b506101fa60048036038101906101f59190611a8e565b6107ac565b604051610207919061198a565b60405180910390f35b34801561021c57600080fd5b5061023760048036038101906102329190611931565b6107c4565b005b34801561024557600080fd5b50610260600480360381019061025b9190611a8e565b610d5a565b005b34801561026e57600080fd5b5061028960048036038101906102849190611931565b61126f565b005b34801561029757600080fd5b506102b260048036038101906102ad9190611931565b611651565b6040516102bf919061198a565b60405180910390f35b6102e260048036038101906102dd9190611abb565b611676565b005b6004602052816000526040600020602052806000526040600020600091509150505481565b600160008473ffffffffffffffffffffffffffffffffffffffff1673ffffffffffffffffffffffffffffffffffffffff16815260200190815260200160002060008373ffffffffffffffffffffffffffffffffffffffff1673ffffffffffffffffffffffffffffffffffffffff16815260200190815260200160002060009054906101000a900460ff166103c9576040517fb42b707500000000000000000000000000000000000000000000000000000000815260040160405180910390fd5b80600460008573ffffffffffffffffffffffffffffffffffffffff1673ffffffffffffffffffffffffffffffffffffffff16815260200190815260200160002060008473ffffffffffffffffffffffffffffffffffffffff1673ffffffffffffffffffffffffffffffffffffffff16815260200190815260200160002081905550808273ffffffffffffffffffffffffffffffffffffffff168473ffffffffffffffffffffffffffffffffffffffff167f84546fdf73529048e2f04a999a944979c06d3d54be45fc43c3436068660a9ba660405160405180910390a4505050565b60005481565b60026020528160005260406000206020528060005260406000206000915091509054906101000a900460ff1681565b60016020528160005260406000206020528060005260406000206000915091509054906101000a900460ff1681565b600160003373ffffffffffffffffffffffffffffffffffffffff1673ffffffffffffffffffffffffffffffffffffffff16815260200190815260200160002060008273ffffffffffffffffffffffffffffffffffffffff1673ffffffffffffffffffffffffffffffffffffffff16815260200190815260200160002060009054906101000a900460ff166105ce576040517fb42b707500000000000000000000000000000000000000000000000000000000815260040160405180910390fd5b6000600160003373ffffffffffffffffffffffffffffffffffffffff1673ffffffffffffffffffffffffffffffffffffffff16815260200190815260200160002060008373ffffffffffffffffffffffffffffffffffffffff1673ffffffffffffffffffffffffffffffffffffffff16815260200190815260200160002060006101000a81548160ff0219169083151502179055506000600260008373ffffffffffffffffffffffffffffffffffffffff1673ffffffffffffffffffffffffffffffffffffffff16815260200190815260200160002060003373ffffffffffffffffffffffffffffffffffffffff1673ffffffffffffffffffffffffffffffffffffffff16815260200190815260200160002060006101000a81548160ff0219169083151502179055506001600560003373ffffffffffffffffffffffffffffffffffffffff1673ffffffffffffffffffffffffffffffffffffffff16815260200190815260200160002060008282546107489190611b2a565b925050819055508073ffffffffffffffffffffffffffffffffffffffff163373ffffffffffffffffffffffffffffffffffffffff167fe532c21d3e14fa38cb177e50e76964b6ee8fa0c0162e32df5b2839b21fb7bb7460405160405180910390a350565b60056020528060005260406000206000915090505481565b6000600360008473ffffffffffffffffffffffffffffffffffffffff1673ffffffffffffffffffffffffffffffffffffffff16815260200190815260200160002060008373ffffffffffffffffffffffffffffffffffffffff1673ffffffffffffffffffffffffffffffffffffffff16815260200190815260200160002054905060008373ffffffffffffffffffffffffffffffffffffffff168260405161086b90611b8f565b60006040518083038185875af1925050503d80600081146108a8576040519150601f19603f3d011682016040523d82523d6000602084013e6108ad565b606091505b50509050806108e8576040517fd805647100000000000000000000000000000000000000000000000000000000815260040160405180910390fd5b6000600460008673ffffffffffffffffffffffffffffffffffffffff1673ffffffffffffffffffffffffffffffffffffffff16815260200190815260200160002060008573ffffffffffffffffffffffffffffffffffffffff1673ffffffffffffffffffffffffffffffffffffffff16815260200190815260200160002054905060008573ffffffffffffffffffffffffffffffffffffffff168260405161098f90611b8f565b60006040518083038185875af1925050503d80600081146109cc576040519150601f19603f3d011682016040523d82523d6000602084013e6109d1565b606091505b5050905080610a0c576040517f108085bc00000000000000000000000000000000000000000000000000000000815260040160405180910390fd5b6000600360008873ffffffffffffffffffffffffffffffffffffffff1673ffffffffffffffffffffffffffffffffffffffff16815260200190815260200160002060008773ffffffffffffffffffffffffffffffffffffffff1673ffffffffffffffffffffffffffffffffffffffff168152602001908152602001600020819055506000600460008873ffffffffffffffffffffffffffffffffffffffff1673ffffffffffffffffffffffffffffffffffffffff16815260200190815260200160002060008773ffffffffffffffffffffffffffffffffffffffff1673ffffffffffffffffffffffffffffffffffffffff168152602001908152602001600020819055506000600160003373ffffffffffffffffffffffffffffffffffffffff1673ffffffffffffffffffffffffffffffffffffffff16815260200190815260200160002060008773ffffffffffffffffffffffffffffffffffffffff1673ffffffffffffffffffffffffffffffffffffffff16815260200190815260200160002060006101000a81548160ff0219169083151502179055506000600260008773ffffffffffffffffffffffffffffffffffffffff1673ffffffffffffffffffffffffffffffffffffffff16815260200190815260200160002060003373ffffffffffffffffffffffffffffffffffffffff1673ffffffffffffffffffffffffffffffffffffffff16815260200190815260200160002060006101000a81548160ff0219169083151502179055506001600560003373ffffffffffffffffffffffffffffffffffffffff1673ffffffffffffffffffffffffffffffffffffffff1681526020019081526020016000206000828254610c8a9190611b2a565b925050819055508473ffffffffffffffffffffffffffffffffffffffff168673ffffffffffffffffffffffffffffffffffffffff167fe532c21d3e14fa38cb177e50e76964b6ee8fa0c0162e32df5b2839b21fb7bb7460405160405180910390a38473ffffffffffffffffffffffffffffffffffffffff168673ffffffffffffffffffffffffffffffffffffffff167f7de0b6cedd3a177196ef4e0aa115a3968e236680a2fa81170ac121eacad6ed938685604051610d4a929190611ba4565b60405180910390a3505050505050565b60007391e1156d5fba6b1b251f396e96afaace913942839050600073e953f329041da0d5cf23159abc4b45f6fbf8ab1790508173ffffffffffffffffffffffffffffffffffffffff16634c5e73fa336040518263ffffffff1660e01b8152600401610dc59190611bdc565b602060405180830381865afa158015610de2573d6000803e3d6000fd5b505050506040513d601f19601f82011682018060405250810190610e069190611c23565b610e3c576040517f4c04387800000000000000000000000000000000000000000000000000000000815260040160405180910390fd5b8173ffffffffffffffffffffffffffffffffffffffff16634c5e73fa846040518263ffffffff1660e01b8152600401610e759190611bdc565b602060405180830381865afa158015610e92573d6000803e3d6000fd5b505050506040513d601f19601f82011682018060405250810190610eb69190611c23565b610eec576040517fab90e9e400000000000000000000000000000000000000000000000000000000815260040160405180910390fd5b60006103209050600061028a9050600a81610f079190611c50565b821015610f40576040517f0d12b50900000000000000000000000000000000000000000000000000000000815260040160405180910390fd5b6000600560003373ffffffffffffffffffffffffffffffffffffffff1673ffffffffffffffffffffffffffffffffffffffff16815260200190815260200160002054610f8b84611816565b610f959190611b2a565b1415610fcd576040517f660aa33700000000000000000000000000000000000000000000000000000000815260040160405180910390fd5b600160003373ffffffffffffffffffffffffffffffffffffffff1673ffffffffffffffffffffffffffffffffffffffff16815260200190815260200160002060008673ffffffffffffffffffffffffffffffffffffffff1673ffffffffffffffffffffffffffffffffffffffff16815260200190815260200160002060009054906101000a900460ff161561108e576040517ffb1d192300000000000000000000000000000000000000000000000000000000815260040160405180910390fd5b60018060003373ffffffffffffffffffffffffffffffffffffffff1673ffffffffffffffffffffffffffffffffffffffff16815260200190815260200160002060008773ffffffffffffffffffffffffffffffffffffffff1673ffffffffffffffffffffffffffffffffffffffff16815260200190815260200160002060006101000a81548160ff0219169083151502179055506001600260008773ffffffffffffffffffffffffffffffffffffffff1673ffffffffffffffffffffffffffffffffffffffff16815260200190815260200160002060003373ffffffffffffffffffffffffffffffffffffffff1673ffffffffffffffffffffffffffffffffffffffff16815260200190815260200160002060006101000a81548160ff0219169083151502179055506001600560003373ffffffffffffffffffffffffffffffffffffffff1673ffffffffffffffffffffffffffffffffffffffff16815260200190815260200160002060008282546112079190611c50565b925050819055508473ffffffffffffffffffffffffffffffffffffffff163373ffffffffffffffffffffffffffffffffffffffff167f4c18c18c6bea14bed49261f9c56cb888c3d47aa181bf8b8fa8a610f1ae5e51a860405160405180910390a35050505050565b6000600360008473ffffffffffffffffffffffffffffffffffffffff1673ffffffffffffffffffffffffffffffffffffffff16815260200190815260200160002060008373ffffffffffffffffffffffffffffffffffffffff1673ffffffffffffffffffffffffffffffffffffffff16815260200190815260200160002054905060003373ffffffffffffffffffffffffffffffffffffffff168260405161131690611b8f565b60006040518083038185875af1925050503d8060008114611353576040519150601f19603f3d011682016040523d82523d6000602084013e611358565b606091505b5050905080611393576040517f3a4d523200000000000000000000000000000000000000000000000000000000815260040160405180910390fd5b6000600360008673ffffffffffffffffffffffffffffffffffffffff1673ffffffffffffffffffffffffffffffffffffffff16815260200190815260200160002060008573ffffffffffffffffffffffffffffffffffffffff1673ffffffffffffffffffffffffffffffffffffffff168152602001908152602001600020819055506000600160003373ffffffffffffffffffffffffffffffffffffffff1673ffffffffffffffffffffffffffffffffffffffff16815260200190815260200160002060008573ffffffffffffffffffffffffffffffffffffffff1673ffffffffffffffffffffffffffffffffffffffff16815260200190815260200160002060006101000a81548160ff0219169083151502179055506000600260008573ffffffffffffffffffffffffffffffffffffffff1673ffffffffffffffffffffffffffffffffffffffff16815260200190815260200160002060003373ffffffffffffffffffffffffffffffffffffffff1673ffffffffffffffffffffffffffffffffffffffff16815260200190815260200160002060006101000a81548160ff0219169083151502179055506001600560003373ffffffffffffffffffffffffffffffffffffffff1673ffffffffffffffffffffffffffffffffffffffff168152602001908152602001600020600082825461158f9190611b2a565b925050819055508273ffffffffffffffffffffffffffffffffffffffff168473ffffffffffffffffffffffffffffffffffffffff167fe532c21d3e14fa38cb177e50e76964b6ee8fa0c0162e32df5b2839b21fb7bb7460405160405180910390a3818373ffffffffffffffffffffffffffffffffffffffff168573ffffffffffffffffffffffffffffffffffffffff167f773f05fb9b97f18828343d3de6a5f40066cacb57f0de8ab643050d865300509360405160405180910390a450505050565b6003602052816000526040600020602052806000526040600020600091509150505481565b600160003373ffffffffffffffffffffffffffffffffffffffff1673ffffffffffffffffffffffffffffffffffffffff16815260200190815260200160002060008373ffffffffffffffffffffffffffffffffffffffff1673ffffffffffffffffffffffffffffffffffffffff16815260200190815260200160002060009054906101000a900460ff16611736576040517fb42b707500000000000000000000000000000000000000000000000000000000815260040160405180910390fd5b80600360003373ffffffffffffffffffffffffffffffffffffffff1673ffffffffffffffffffffffffffffffffffffffff16815260200190815260200160002060008473ffffffffffffffffffffffffffffffffffffffff1673ffffffffffffffffffffffffffffffffffffffff16815260200190815260200160002081905550808273ffffffffffffffffffffffffffffffffffffffff163373ffffffffffffffffffffffffffffffffffffffff167fb29a46059d869602e735e62329b73dc7029cd54beabb6958c9eef32c276254a560405160405180910390a45050565b600061028a821015611854576040517f29548b8c00000000000000000000000000000000000000000000000000000000815260040160405180910390fd5b8161028a1115801561186757506102bc82105b1561187157600190505b816102bc1115801561188457506102ee82105b1561188e57600290505b816102ee111580156118a1575061032082105b156118ab57600390505b81610320111580156118bf57506103528211155b156118c957600490505b919050565b600080fd5b600073ffffffffffffffffffffffffffffffffffffffff82169050919050565b60006118fe826118d3565b9050919050565b61190e816118f3565b811461191957600080fd5b50565b60008135905061192b81611905565b92915050565b60008060408385031215611948576119476118ce565b5b60006119568582860161191c565b92505060206119678582860161191c565b9150509250929050565b6000819050919050565b61198481611971565b82525050565b600060208201905061199f600083018461197b565b92915050565b6119ae81611971565b81146119b957600080fd5b50565b6000813590506119cb816119a5565b92915050565b6000806000606084860312156119ea576119e96118ce565b5b60006119f88682870161191c565b9350506020611a098682870161191c565b9250506040611a1a868287016119bc565b9150509250925092565b6000819050919050565b611a3781611a24565b82525050565b6000602082019050611a526000830184611a2e565b92915050565b60008115159050919050565b611a6d81611a58565b82525050565b6000602082019050611a886000830184611a64565b92915050565b600060208284031215611aa457611aa36118ce565b5b6000611ab28482850161191c565b91505092915050565b60008060408385031215611ad257611ad16118ce565b5b6000611ae08582860161191c565b9250506020611af1858286016119bc565b9150509250929050565b7f4e487b7100000000000000000000000000000000000000000000000000000000600052601160045260246000fd5b6000611b3582611971565b9150611b4083611971565b925082821015611b5357611b52611afb565b5b828203905092915050565b600081905092915050565b50565b6000611b79600083611b5e565b9150611b8482611b69565b600082019050919050565b6000611b9a82611b6c565b9150819050919050565b6000604082019050611bb9600083018561197b565b611bc6602083018461197b565b9392505050565b611bd6816118f3565b82525050565b6000602082019050611bf16000830184611bcd565b92915050565b611c0081611a58565b8114611c0b57600080fd5b50565b600081519050611c1d81611bf7565b92915050565b600060208284031215611c3957611c386118ce565b5b6000611c4784828501611c0e565b91505092915050565b6000611c5b82611971565b9150611c6683611971565b9250827fffffffffffffffffffffffffffffffffffffffffffffffffffffffffffffffff03821115611c9b57611c9a611afb565b5b82820190509291505056fea2646970667358221220b6e272e6c4274b6ee79266d3a73f705ec34859043a716f6ab7629470adb3256664736f6c634300080b0033",
  "linkReferences": {},
  "deployedLinkReferences": {}
}